:0925F400414243444546474800BA
:101C5C0060310001B3B5C1BEC6F0B2BDC7EBB7F67B
:101C6C00BAC3D5BEBAC3D7A2D2E2B0B2C8ABC7EB27
:101C7C00D6F7B6AFB8F8C0CFC8F5B2A1B2D0C8C3CA
:101C8C00D7F90A0A00470033D5BEB5BDC1CB005FFA
:101C9C00003AC7EBD2C0B4CEB4D3BAF3C3C5CFC2EB
:101CAC00B3B5CFC2B3B5C7EBD7A2D2E2B0B2C8AB13
:101CBC00005A005AB5B1C7B0CEC2B6C8B9B8DFC762
:101CCC00EBD7A2D2E2B7C0CAEEBDB5CEC20044007B
:101CDC00AC544F3A004600814E4558543A004100EE
:101CEC007C014100A5014100A601410074004100A6
:101CFC00790041008701410088014100B200410098
:101D0C0076004100A8014100AA0141007800410081
:101D1C007B004100A9014100AB0141007A00410068
:101D2C007D004100A2014100A40141005900410085
:101D3C0077004100A1014100A301410032004100A4
:101D4C007E014100B10048009920200000000000F5
:091D5C00004100A70041008000D5
:10000300E4FDFCC3ED9FEC9E5015E4FBFA0BBB0033
:0F001300010AEB64704A70F50DBD00010C80E42A
:0100220022BB
:05260D00C2A1C2A322DE
:03232500A3E0FD35
:10232800D2A1EF54FEFFE4FEEF30E004D2A2800217
:10233800C2A2D2A3C2A3EFC313FF0EEEB408E9E40E
:10234800FEED30E004D2A28002C2A2D2A3C2A3ED65
:0A235800C313FD0EEEB408E9C2A1A4
:012362002258
:1022E600D2A1EF4401FFE4FDEF30E004D2A2800268
:1022F600C2A2D2A3C2A3EFC313FF0DEDB408E9E453
:10230600FDEEC313FE30A2054480FE8004EE547F2A
:0E231600FED2A3C2A30DEDB408E7C2A1AF062C
:012324002296
:10229D00E4FD7F8E1223287D807F801223289000FD
:1022AD009AE0FD7F8C1223287F881223257F8612CA
:1022BD002325A3E0FD7F84122328A3E0FD7F821256
:1022CD002328A3E0FD7F80122328A3E0FD7F8A123F
:0922DD0023287D807F8E02232856
:102363007F8C1222E690009AEFF07F881222E6A378
:10237300EFF07F861222E6A3EFF07F841222E6A31A
:10238300EFF07F821222E6A3EFF07F801222E6EFC6
:0D239300547FA3F07F8A1222E6A3EFF02210
:0B25E900EF1FAC0670011E4C70F622C4
:1023A000758920E4F587759850EF14600C1460115E
:1023B00014600E240370128010758DF9758BF980EE
:1023C0000E758DFD758BFD8006758DF3758BF3D2C3
:0823D0008ED2ACD2AFD29C22E8
:06259700E09025F493FF23
:0F259D008F999000B07401F09000B0E070FA22B6
:0D24D9007B017A0079331224E67A00793A0B
:1024E600121F14FF600C12259D740129F9E43AFAB3
:0324F60080EE2253
:101AF300E49000CDF075900FE590640F7003021C25
:101B03005B7FE87E031225E9E590640F7003021CF6
:101B13005B75900FAF90EF24F5601224FE601614EE
:101B2300601B2407701DE490007FF0801690007FF7
:101B33007401F0800E90007F7402F0800690007FA5
:101B43007403F07590F0AF90EF2450601324E060BD
:101B53001824F0601D2470702090007FE0F080193D
:101B630090007FE02404F0801090007FE02408F0D0
:101B7300800790007FE0240CF090007FE0B4100019
:101B83004003021C3E901B8FF8282873021BBF02E0
:101B93001BCC021BD9021BE4021BF5021BFB021C1C
:101BA30001021C07021C0D021C13021C19021C1F3C
:101BB300021C25021C2B021C31021C37E490007509
:101BC300F090007C04F0021C3E9000757407F0E472
:101BD30090007CF080659000B11225971224D98083
:101BE3005AE4900075F090007C04F0E490007EF0DD
:101BF3008049E49000A58040E49000A6803AE490F8
:101C030000878034E4900088802EE49000A8802828
:101C1300E49000AA8022E49000A9801CE49000AB29
:101C23008016E49000A28010E49000A4800AE4905F
:101C330000A18004E49000A3F0C2A09000CDE0C313
:101C4300648094B25012E59064F0600C7FE87E03E8
:081C53001225E9E004F080E332
:011C5B002266
:10137E00121D661224B37F327E0012000312260D58
:10138E007F021223A07F0A12000312229D121AF36B
:10139E001223639000A5E0703290007FE0B4042B1E
:1013AE00900074E004F09000A57401F090009AE0B3
:1013BE00540FFF900074E02FFFE433FEEF64094EEC
:1013CE007007F0900079E004F0D2A09000A6E070D3
:1013DE003690007FE0B4052F900074E014F090007A
:1013EE00A67401F0D2A090009AE0540FFF90007402
:1013FE00E02FFFE433FEEFF44E700C900079E01412
:10140E00F09000747409F0900087E0703290007FC5
:10141E00E0B4062B9000B2E004F090009BE0540F75
:10142E00FF9000B2E02FFFE433FEEF640A4E700728
:10143E00F0900076E004F0D2A09000877401F09056
:10144E000088E0703690007FE0B4072F9000B2E085
:10145E0014F09000887401F0D2A090009BE0540F1D
:10146E00FF9000B2E02FFFE433FEEFF44E700C90CD
:10147E000076E014F09000B27409F09000A8E070CD
:10148E003290007FE0B4082B900078E004F09000DA
:10149E009CE0540FFF900078E02FFFE433FEEF64E2
:1014AE000A4E7007F090007BE004F0D2A09000A8E6
:1014BE007401F09000AAE0703690007FE0B4092F1E
:1014CE00900078E014F09000AA7401F0D2A0900081
:1014DE009CE0540FFF900078E02FFFE433FEEFF412
:1014EE004E700C90007BE014F09000787409F09030
:1014FE0000A9E0703290007FE0B40A2B90007AE0F1
:10150E0004F090009DE0540FFF90007AE02FFFE46E
:10151E0033FEEF640A4E7007F090007DE004F0D2C7
:10152E00A09000A97401F09000ABE0703690007F9F
:10153E00E0B40B2F90007AE014F09000AB7401F041
:10154E00D2A090009DE0540FFF90007AE02FFFE4B0
:10155E0033FEEFF44E700C90007DE014F090007AA4
:10156E007409F09000A2E0703290007FE0B40C2B72
:10157E00900059E004F090009EE0540FFF90005947
:10158E00E02FFFE433FEEF640A4E7007F090007711
:10159E00E004F0D2A09000A27401F09000A4E070DC
:1015AE003690007FE0B40D2F900059E014F09000BB
:1015BE00A47401F0D2A090009EE0540FFF90005949
:1015CE00E02FFFE433FEEFF44E700C900077E01442
:1015DE00F09000597409F09000A1E0702D90007FFA
:1015EE00E0B40E26900032E004F09000A0E0540724
:1015FE00FF900032E02FFFE433FEEF64084E7002DE
:10160E0004F0D2A09000A17401F09000A3E0702D20
:10161E0090007FE0B40F26900032E014F09000A30B
:10162E007401F0D2A09000A0E05407FF900032E0C9
:10163E002FFFE4334F70069000597407F090009915
:10164E00E0FFC4540F2430900089F09000B3F0EF07
:10165E00540F243090008AF09000B4F090009AE07D
:10166E00FFC4540F2430FE900079E02E90008BF0D2
:10167E009000B5F0EF540F2430FF900074E02F90DF
:10168E00008CF0E0FF9000B6F0E4A3F0EF24D4FF5E
:10169E0090008BE024D0FEA807088002C333D8FC4C
:1016AE0090009AF0A3E0FFC4540F2430FE90007611
:1016BE00E02E90008DF09000B8F0EF540F2430FF24
:1016CE009000B2E02F90008EF0E0FF9000B9F0E4B1
:1016DE00A3F0EF24D4FF90008DE024D0FEA80708DD
:1016EE008002C333D8FC90009BF0A3E0FFC4540FDC
:1016FE002430FE90007BE02E90008FF09000BBF027
:10170E00EF540F2430FF900078E02F900090F0E01F
:10171E00FF9000BCF0E4A3F0EF24D4FF90008FE024
:10172E0024D0FEA807088002C333D8FC90009CF09A
:10173E009000A0E054072430FF900032E02FFF907D
:10174E000097F09000C7F0E4A3F0EF24D09000A033
:10175E00F090009DE0FFC4540F2430FE90007DE019
:10176E002E900091F09000BEF0EF540F2430FF90B9
:10177E00007AE02F900092F09000BFF0900092E07F
:10178E0024D4FF900091E024D0FEA807088002C365
:10179E0033D8FC90009DF09000C0743AF090009EFB
:1017AE00E0C4540F2430FF900077E02F900093F0A8
:1017BE009000C1F090009EE0540F2430FF9000592D
:1017CE00E02F900094F09000C2F0A3743AF09000D5
:1017DE0094E024D4FF900093E024D0FEA807088064
:1017EE0002C333D8FC90009EF0A3E0FFC4540F2434
:1017FE0030900095F09000C4F090009FE0540F24BC
:10180E0030900096F09000C5F0E4A3F0900098F0B0
:10181E0030A703021A1F7F64FE1225E930A70302C8
:10182E001A1F900075122597900075E0FF9025F411
:10183E00939000C9F0E4A3F090007CE0701FEF14C9
:10184E00900000F0900075E014F0E0B4FF03740710
:10185E00F0900000E0F470237407F0801E90007585
:10186E00E004900000F0900075E004F0E0B408028F
:10187E00E4F0900000E0B40802E4F0900000E09084
:10188E0025F4939000CBF0E4A3F01224D97F0A1232
:10189E00259D900075E09000B1F07B187D04E4FF6B
:1018AE001221257B197D047F121221257B1A7D04BE
:1018BE007F241221257B1B7D047F361221257B1C64
:1018CE007D047F481221257B1D7D047F5A12212520
:1018DE007B1E7D047F6C1221257B1F7D06E4FF128B
:1018EE0021257B0F7D067F121221257B147D067F1D
:1018FE00241221257B157D067F361221257B167D30
:10190E00067F481221257B177D067F5A122125302E
:10191E00A7FD7B0B7D04E4FF1221257B0C7D047F4C
:10192E00121221257B0D7D047F241221257B0E7D35
:10193E00047F361221257B0F7D047F481221257BE3
:10194E00107D047F5A1221257B117D047F6C12219C
:10195E00257B127D06E4FF1221257B137D067F1267
:10196E001221257B147D067F241221257B157D06F1
:10197E007F361221257B167D067F481221257B1787
:10198E007D067F5A1221257F327E001225507B2044
:10199E007D04E4FF1221257B217D047F1212212577
:1019AE007B227D047F241221257B237D047F36122A
:1019BE0021257B247D047F481221257B257D047FF4
:1019CE005A1221257B267D047F6C1221257B277DD3
:1019DE0006E4FF1221257B287D067F121221257B2E
:1019EE00297D067F241221257B2A7D067F36122132
:1019FE00257B2B7D067F481221257B2C7D067F5A69
:101A0E001221257B017A0079011224E67F0A122524
:101A1E009D1224B37B017A0079B39000D2740CF03E
:101A2E00E4FDFF12223D7B07E4FD7F241221257B7E
:101A3E00017A0079B89000D2740CF0E4FD7F361272
:101A4E00223D7B08E4FD7F481221257B017A007937
:101A5E00BB9000D2740CF0E4FD7F5A12223D7B093C
:101A6E00E4FD7F6C1221257B0A7D02E4FF12212505
:101A7E007B017A0079C79000D2740CF07D027F1240
:101A8E0012223D7B017A0079BE9000D2740CF07D5B
:101A9E00027F2412223D7B017A0079AC9000D27431
:101AAE000CF07D037F2412223D7B017A0079C990D0
:101ABE0000D2740CF07D037F3C12223D7B017A0034
:101ACE0079819000D2740CF07D037F4812223D7B09
:101ADE00017A0079CB9000D2740CF07D037F7012E6
:051AEE00223D02139BE4
:030023000225357E
:10253500C0E0C083C082309804C2988007C29990D9
:0B25450000B0E4F0D082D083D0E03280
:100026000000000000000000002F00000000070094
:10003600070000147F147F1400242A7F2A1200620E
:1000460064081323003649552250000005030000BA
:1000560000001C224100000041221C000014083E42
:1000660008140008083E0808000000A06000000808
:10007600080808080000606000000020100804025C
:10008600003E5149453E0000427F4000004261511A
:100096004946002141454B31001814127F100027B4
:1000A60045454539003C4A49493000017109050377
:1000B60000364949493600064949291E00003636A8
:1000C600000000005636000000081422410000140B
:1000D60014141414000041221408000201510906E8
:1000E60000324959513E007C1211127C007F494969
:1000F6004936003E41414122007F4141221C007F9A
:1001060049494941007F09090901003E4149497AA7
:10011600007F0808087F0000417F41000020404121
:100126003F01007F08142241007F40404040007F8D
:10013600020C027F007F0408107F003E4141413ED1
:10014600007F09090906003E4151215E007F091919
:1001560029460046494949310001017F0101003F16
:100166004040403F001F2040201F003F4038403F96
:1001760000631408146300070870080700615149FA
:10018600454300007F41410000552A552A5500008D
:1001960041417F000004020102040040404040400B
:1001A600000001020400002054545478007F4844A3
:1001B600443800384444442000384444487F0038DA
:1001C6005454541800087E0901020018A4A4A47C03
:1001D600007F080404780000447D400000408084CD
:1001E6007D00007F102844000000417F4000007C15
:1001F60004180478007C0804047800384444443821
:1002060000FC242424180018242418FC007C08046C
:10021600040800485454542000043F444020003C45
:100226004040207C001C2040201C003C4030403CCC
:10023600004428102844001CA0A0A07C004464545C
:100246004C441414141414140000000000000000A0
:100256000000000000000000000000F800000000A0
:10026600000000333000000000100C06100C0600E1
:10027600000000000000000040C07840C078400048
:10028600043F04043F040400007088FC08300000AA
:10029600001820FF211E0000F008F000E018000002
:1002A60000211C031E211E0000F0088870000000BB
:1002B6001E2123241927211010160E00000000000D
:1002C6000000000000000000000000E0180402002A
:1002D600000000071820400000020418E00000009B
:1002E6000040201807000000404080F08040400099
:1002F6000202010F01020200000000F000000000EF
:100306000101011F010101000000000000000000C2
:1003160080B0700000000000000000000000000037
:1003260000010101010101010000000000000000C0
:10033600003030000000000000000000806018045B
:10034600006018060100000000E010080810E00038
:10035600000F102020100F00001010F80000000001
:100366000020203F20200000007008080888700048
:1003760000302824222130000030088888483000C8
:100386000018202020110E000000C02010F80000E8
:1003960000070424243F240000F808888808080081
:1003A6000019212020110E0000E010888818000096
:1003B600000F112020110E0000380808C838080068
:1003C6000000003F000000000070880808887000E8
:1003D600001C222121221C0000E010080810E00069
:1003E6000000312222110F00000000C0C0000000F2
:1003F6000000003030000000000000800000000017
:10040600000080600000000000008040201008000E
:1004160000010204081020004040404040404000D7
:1004260004040404040404000008102040800000B2
:100436000020100804020100007048080808F000B7
:100446000000003036010000C030C828E810E00087
:100456000718272423140B000000C038E000000012
:10046600203C23020227382008F88888887000007C
:10047600203F202020110E00C03008080808380050
:10048600071820202010080008F808080810E000C7
:10049600203F202020100F0008F88888E808100068
:1004A600203F20202320180008F88888E80810003C
:1004B600203F200003000000C03008080838000074
:1004C60007182020221E020008F808000008F80875
:1004D600203F210101213F20000808F808080000FC
:1004E6000020203F2020000000000808F80808002F
:1004F600C08080807F00000008F888C028180800A7
:10050600203F20012638200008F8080000000000DF
:10051600203F20202020300008F8F800F8F80800D6
:10052600203F003F003F200008F830C00008F808D0
:10053600203F200007183F00E01008080810E000E0
:100546000F10202020100F0008F808080808F000F7
:10055600203F210101010000E01008080810E0001A
:100566000F18242438504F0008F8888888887000AF
:10057600203F2000030C302000708808080838004F
:100586000038202121221C00180808F80808180045
:100596000000203F2000000008F808000008F808C6
:1005A600001F202020201F000878880000C8380877
:1005B600000007380E010000F80800F80008F800EF
:1005C600033C0700073C0300081868808068180889
:1005D60020302C03032C30200838C800C838080007
:1005E6000000203F2000000010080808C838080056
:1005F6002038262120201800000000FE02020200FA
:100606000000007F40404000000C30C000000000A9
:10061600000000010638C00000020202FE000000D1
:10062600004040407F000000000004020202040077
:1006360000000000000000000000000000000000B4
:10064600808080808080808000020204000000009C
:100656000000000000000000000080808080000094
:100666000019242222223F2008F800808000000082
:10067600003F112020110E00000000808080000045
:10068600000E112020201100000000808088F80054
:10069600000E112020103F20000080808080000086
:1006A600001F222222221300008080F088888818EA
:1006B6000020203F202000000000808080808000F5
:1006C600006B94949493600008F80080808000008A
:1006D600203F210000203F20008098980000000065
:1006E6000020203F20200000000000809898000095
:1006F60000C08080807F000008F8000080808000B5
:10070600203F24022D302000000808F800000000D9
:100716000020203F20200000808080808080800094
:10072600203F20003F20003F808000808080000026
:10073600203F210000203F200000808080800000B4
:10074600001F202020201F008080008080000000E5
:1007560080FFA12020110E00000000808080800014
:10076600000E112020A0FF80808080008080800005
:1007760020203F2120000100000080808080800032
:100786000033242424241900008080E080800000A7
:100796000000001F202000008080000000808000F4
:1007A600001F202020103F20808080000080808055
:1007B60000010E30080601008080008000808080E5
:1007C6000F300C030C300F0000808000808080000A
:1007D6000020312E0E312000808080000080808035
:1007E60080818E70180601000080808080808000E5
:1007F6000021302C2221300000000000807C020203
:1008060000000000003F404000000000FF00000024
:1008160000000000FF0000000002027C80000000D3
:100826000040403F000000000006010102020404EF
:1008360000000000000000000000F010101010FF83
:1008460010101010F0000000000000000000000072
:10085600000000000000000000000F04040404FF74
:10086600040404040F000000000000000000000063
:1008760000000000000000004040405F55555575DF
:100886005555555F40404000000000000000000044
:1008960000000000000000000040200F094989798F
:1008A6000909090F204000000000000000000000B8
:1008B600000000000000000000FE02424ACA4A4A48
:1008C600CA4A4A4202FE0000000000000000000082
:1008D600000000000000000000FF40504C43404074
:1008E6004F50505C40FF0000000000000000000078
:1008F60000000000000000000000F888888888FFDB
:1009060088888888F80000000000000000000000C9
:10091600000000000000000000001F080808087F13
:10092600888888889F80F000000000000000000092
:10093600000000000000000080828282828282E243
:10094600A2928A86828080000000000000000000DB
:100956000000000000000000000000000040807F52
:100966000000000000000000000000000000000081
:1009760000000000000000002424A4FEA3220022A0
:10098600CC0000FF00000000000000000000000096
:100996000000000000000000080601FF000104043A
:1009A600040404FF02020200000000000000000030
:1009B6000000000000000000101010FF10900888D2
:1009C6008888FF8888880800000000000000000072
:1009D60000000000000000000444827F0180804087
:1009E600432C102846818000000000000000000013
:1009F6000000000000000000002018C744444444E2
:100A0600FC444444440400000000000000000000D0
:100A160000000000000000000404040704040404AD
:100A2600FF040404040404000000000000000000A9
:100A36000000000000000000000000FE222222222A
:100A460022222222FE00000000000000000000001A
:100A560000000000000000008040300F0202020289
:100A6600020242827F000000000000000000000039
:100A76000000000000000000000000FE828282826A
:100A8600828282FE000000000000000000000000DC
:100A96000000000000000000000000FF4040404051
:100AA600404040FF00000000000000000000000081
:100AB60000000000000000000000FE82929292FEFC
:100AC60092929282FE0000000000000000000000EA
:100AD600000000000000000080601F00001E1212CF
:100AE600121E40807F000000000000000000000091
:100AF60000000000000000000008884828180FE8E1
:100B060008080808080800000000000000000000AF
:100B1600000000000000000008080909090909FF93
:100B26000909090909080800000000000000000082
:100B36000000000000000000C8B88FE88888E222A4
:100B460022FE22FE2222E200000000000000000039
:100B56000000000000000000081808FF0404FF0859
:100B66000601060142847F0000000000000000002C
:100B7600000000000000000040484848FF484800C8
:100B8600C4444444FC0000000000000000000000D3
:100B9600000000000000000080601F207F444440E9
:100BA6004F505050505C4000000000000000000014
:100BB60000000000000000004040407C404040FF34
:100BC600444444444440400000000000000000004B
:100BD6000000000000000000809088464040202F62
:100BE60010100804020000000000000000000000D1
:100BF60000000000000000004042CC0000445454B5
:100C0600547F54545444400000000000000000008B
:100C1600000000000000000000007F201000FF150B
:100C2600151555957F00000000000000000000002B
:100C36000000000000000000101010FF10900010CF
:100C46001010FF101010000000000000000000004F
:100C560000000000000000000444827F0100814182
:100C6600310D030D3141810000000000000000003D
:100C760000000000000000001010F01F10F00080BF
:100C86008282E2928A868000000000000000000056
:100C96000000000000000000402215081661000058
:100CA60040807F00000000000000000000000000FF
:100CB600000000000000000000C808090EE8080057
:100CC6000000FF10101010000000000000000000DF
:100CD6000000000000000000103017100E0908FF89
:100CE6004141414141FF00000000000000000000BA
:100CF60000000000000000001010F01F10F000803F
:100D06008282E2928A8680000000000000000000D5
:100D160000000000000000004022150816610000D7
:100D260040807F000000000000000000000000007E
:100D360000000000000000001060028C0008080897
:100D460009FA08080808000000000000000000007A
:100D5600000000000000000004047E014040414104
:100D6600417F414141414000000000000000000079
:100D76000000000000000000101012D2565A525314
:100D8600525A56D212101000000000000000000057
:100D960000000000000000004030007785858DB51A
:100DA600858585E700106000000000000000000057
:100DB600000000000000000080908C848484F5868A
:100DC60084848484948C800000000000000000006D
:100DD60000000000000000000080808446492810C2
:100DE600102C2340800000000000000000000000DE
:100DF600000000000000000080804020504844C3EE
:100E060044485020408080000000000000000000A0
:100E16000000000000000000004040444444447FBD
:100E2600444444444040000000000000000000002C
:100E360000000000000000004042CC000044545472
:100E4600547F545454444000000000000000000049
:100E5600000000000000000000007F201000FF15C9
:100E6600151555957F0000000000000000000000E9
:100E76000000000000000000008060F8070808C8B5
:100E860039CE0808088808000000000000000000AD
:100E96000000000000000000010000FF040201FF46
:100EA6004021060A1120400000000000000000005A
:100EB600000000000000000000020C80608040304E
:100EC6000FC80808281800000000000000000000F5
:100ED600000000000000000002027E018040201891
:100EE60006010618204080000000000000000000F7
:100EF600000000000000000000000000FF000000ED
:100F06000000FF00000000000000000000000000DC
:100F160000000000000000008040300E01824C20DE
:100F2600180700071860800000000000000000009D
:100F36000000000000000000000000FC242424241F
:100F460022222223222020000000000000000000B0
:100F560000000000000000004020180700FE42428A
:100F660042424242FE000000000000000000000075
:100F7600000000000000000000F801060000020268
:100F86000202020202FE0000000000000000000053
:100F9600000000000000000000FF0000000000004C
:100FA60000000040807F00000000000000000000FC
:100FB6000000000000000000020202020202FE021F
:100FC600024282020202020000000000000000004D
:100FD6000000000000000000000000000000FF000C
:100FE60000000001060000000000000000000000F4
:100FF60000000000000000000008884828180FE8DC
:1010060008080808080800000000000000000000AA
:10101600000000000000000008080909090909FF8E
:10102600090909090908080000000000000000007D
:1010360000000000000000004042CC000044545470
:10104600547F545454444000000000000000000047
:10105600000000000000000000007F201000FF15C7
:10106600151555957F0000000000000000000000E7
:10107600000000000000000000080808080809FA3F
:10108600080808080808000000000000000000002A
:101096000000000000000000404041414141417F06
:1010A6004141414141404000000000000000000075
:1010B60000000000000000004044C44444444010C6
:1010C60010FF101010F000000000000000000000EB
:1010D6000000000000000000103C131014B840305F
:1010E6000E014080403F00000000000000000000AC
:1010F60000000000000000002030AC6310205048C3
:101106004443444850202000000000000000000036
:101116000000000000000000226722121200FE42BA
:1011260042424242FE0000000000000000000000B3
:101136000000000000000000202024242424BF64B6
:101146002434282422202000000000000000000093
:101156000000000000000000100804023F4544445F
:1011660042424241780000000000000000000000FA
:10117600000000000000000000F2929292929E0091
:10118600F2929292929E0000000000000000000081
:1011960000000000000000000010114A88443F00D3
:1011A60010114A88443F00000000000000000000C3
:1011B6000000000000000000106000FC042424244D
:1011C60025E624242424040000000000000000007A
:1011D60000000000000000008442310F00FF1109EA
:1011E60005030559817F0000000000000000000093
:1011F600000000000000000004C43C2424E48090A9
:1012060090FF90494A48400000000000000000009E
:101216000000000000000000824121120C03404043
:1012260020130C142241F80000000000000000000A
:10123600000000000000000008042322262A22FAEB
:10124600242322262A0202000000000000000000DB
:1012560000000000000000000109090919690909D8
:1012660049897D090909010000000000000000000D
:10127600000000000000000040484A4AEA0A0AFE50
:101286000909E94949288000000000000000000023
:101296000000000000000000222211110B0402FFD2
:1012A60002040912122223000000000000000000C0
:1012B6000000000000000000100C8444B4A42526A1
:1012C60024A4642404140C000000000000000000A4
:1012D6000000000000000000040404FA4A4A4949DC
:1012E600494A4AFA04040400000000000000000015
:1012F6000000000000000000404042CC000000005A
:1013060000FF4040404000000000000000000000D8
:1013160000000000000000000000003F5048404070
:10132600407F4040404040000000000000000000B8
:1013360000000000000000000000FC048474840526
:10134600FE04847484040400000000000000000011
:10135600000000000000000040304F414444444576
:101366007F45444444414000000000000000000066
:0813760000000000000000006F
:10255000EF4E60157D087C07ED1DAA0470011C4A32
:0925600070F6EF1F70EA1E80E71F
:01256900224F
:0925FD00D2A5D2A6C2A6C2A522F5
:07260600D2A5C2A6D2A62254
:0B25BD0012246C1225C8AF0412246C1D
:0525C800D2A5C2A5220E
:07246500AC071225FD7F7892
:10246C00C2A5E4FEAD07ED5480B48004D2A6800270
:0F247C00C2A6EF25E0FFD2A5C2A50EEEB408E57B
:01248B00222E
:0E25CD001224651225C8E4FF1225BD02260661
:0E25DB001224651225C87F401225BD02260677
:10243900E924B0FFE433FEE4FDFC122454E4FDFC7E
:0B244900FFFE1224547F10E4FDFCFE97
:10245400AB07AA06ED4C60030225DBAF031225CDC2
:012464002255
:05240C009000EDEFF06F
:10241100E4F9122439E49000EEF09000EDE0FF7E43
:10242100007D017C00122454A3E004F0E0C39480F9
:0724310040E809E9B408DBF3
:012438002281
:1024F900D3EF9400EE940040147D657C18ED1D70B7
:0D250900011CED4C70F7EF1F70E61E80E323
:0125160022A2
:10258100EF1FAA0670011E4A600BE4FDEDC3947BA8
:0525910050EE0D80F783
:012596002222
:0823D8009000D4E0FFA3E0FD3A
:1023E000A907ED24B0FFE433FEE4FDFC122454E918
:1023F00054F0C4540F7E004410FFE4FDFC1224543A
:0C240000E9540FFF7E00E4FDFC022454B0
:10256A007F8D122450E4FDFC7F14FE122454E4FDF6
:07257A00FC7FAFFE022454B8
:1025AC00E4FDFC7F8D12244AE4FDFC7FAEFE022488
:0125BC0054CA
:1024B300E4F9122439E49000CDF07D017C00E4FFBF
:1024C300FE1224549000CDE004F0E0C3948040EA6F
:0524D30009E9B408DD79
:0124D80022E1
:10248C00E4F9122439E49000EFF07D017C007F0127
:10249C007E001224549000EFE004F0E0C3948040DE
:0624AC00E909E9B408DCB7
:0124B2002207
:0B1E46009000D5EDF09000D4EFF0FD0F
:101E5100E49000D8F0F9EB24E0F0EDD3947F400A50
:101E6100E49000D4F0A3E02402F09000D7E06410E5
:101E7100706E1223D8E4F99000D8E075F010A4290F
:101E8100F582E435F0F583E582244EF582E583346D
:101E910002F583E493FF7E007D017C001224540946
:101EA100E9B408D39000D4E0FFA3E004FD1223E0DD
:101EB100E4F99000D8E075F010A429F582E435F03A
:101EC100F583E5822456F582E5833402F583E493B4
:101ED100FF7E007D017C0012245409E9B408D3225D
:101EE1001223D8E4F99000D8E075F006A42426F571
:101EF10082E5F03400F583E58229F582E43583F546
:101F010083E493FF7E007D017C0012245409E9B42F
:021F110006D3F5
:011F130022AB
:072517009000F0EFF0A905B0
:10251E007F017E00AD0119ED600C9000F0E0FD7CB6
:06252E0000121F5A80EEAE
:012534002284
:0E1FD7009000E4EFF0A3EDF0A3EAF0A3EBF02E
:101FE500E49000ECF09000EAF09000E8E0FF90004B
:101FF500EAE0FEC39F4003022091C3EF9E14FD7FDC
:102005000A1225179000E6E0FCA3E0FDCFCDCFCE68
:10201500CCCE121F6C7C007D0A121F6C9000EBED7C
:10202500F0A3E070369000E8E014FF9000EAE0FECF
:10203500C39F5027A3E0701D9000E9E0FCC3138EF9
:10204500F0A4FF9000E4E02FFFA3E0FD9000D7ECA3
:10205500F07B20802B9000EC7401F09000E9E0FE0D
:10206500C313FFA3E0FDEF8DF0A4FF9000E4E02F84
:10207500FFA3E0FD9000EBE02430FB9000D7EEF0ED
:0C208500121E469000EAE004F0021FEE7C
:01209100222C
:10223D009000CDEFF0A3EDF0A3EBF0A3EAF0A3E94E
:01224D00F0A0
:10224E00E49000D3F09000CFE0FBA3E0FAA3E0F916
:10225E009000D3E0F582758300121F2DFB602F9046
:10226E0000CDE0FFA3E0FD9000D2E09000D7F01289
:10227E001E469000CDE02408F0E0D394784007E4A9
:0E228E00F0A3E02402F09000D3E004F080B74B
:01229C00221F
:0D2125009000CFEBF09000CDEFF0A3EDF0B7
:10213200E49000D0F01223E0E4F99000CFE075F0D3
:1021420040A4243EF582E5F03408F583E58229F5C2
:1021520082E43583F583E493FF7E007D017C0012E7
:1021620024549000D0E004F009E9B410CD9000CDE1
:10217200E0FFA3E004FD1223E0E4F99000CFE07554
:10218200F040A4245EF582E5F03408F583E5822967
:10219200F582E43583F583E493FF7E007D017C00C4
:0E21A2001224549000D0E004F009E9B410CDEE
:0121B000220C
:0A2092009000D9EFF09000DBEBF0B6
:10209C00E49000E0F0A3F09000DCE0FF540770083F
:1020AC00EF131313541F800A9000DCE01313135426
:1020BC001F049000E3F09000E3EDF09000DCE0FFF3
:1020CC009000E3E0FDC39F504F9000D9E0FF122336
:1020DC00E0E09000E2F09000DBE0FF9000E2E0C373
:1020EC009F502D9000DDE0FBA3E0FAA3E0F9A3E400
:1020FC0075F001121FC185F082F583121F2DFF7E32
:10210C00007D017C001224549000E2E004F080C6B3
:08211C009000E3E004F080A351
:012124002298
:101D6600E4FDFC7FAEFE122443E4FDFC7F40FE1240
:101D76002454E4FDFC7FB0FE122454E4FDFC7F8174
:101D8600FE122454E4FDFC7FFFFE122454E4FDFC05
:101D96007FA1FE122454E4FDFC7FA6FE122454E427
:101DA600FDFC7FA8FE122454E4FDFC7F3FFE1224B6
:101DB60054E4FDFC7FC8FE122454E4FDFC7FD3FEF0
:101DC600122454E4FDFCFFFE122454E4FDFC7FD5EE
:101DD600FE122454E4FDFC7F80FE122454E4FDFC34
:101DE6007FD8FE122454E4FDFC7F05FE122454E441
:101DF600FDFC7FD9FE122454E4FDFC7FF1FE122483
:101E060054E4FDFC7FDAFE122454E4FDFC7F12FE4E
:101E1600122454E4FDFC7FDBFE122454E4FDFC7F17
:101E260030FE122454E4FDFC7F8DFE122454E4FDA2
:101E3600FC7F14FE122454E4FDFC7FAFFE02245402
:030000000221B129
:0C21B100787FE4F6D8FD7581070221F864
:101F1400BB010689828A83E0225002E722BBFE02CB
:091F2400E32289828A83E49322FE
:101F2D00BB010CE58229F582E5833AF583E0225069
:101F3D0006E92582F8E622BBFE06E92582F8E222B3
:0D1F4D00E58229F582E5833AF583E49322CD
:101F5A00EF8DF0A4A8F0CF8CF0A428CE8DF0A42E9B
:021F6A00FE2255
:101F6C00BC000BBE0029EF8DF084FFADF022E4CC59
:101F7C00F875F008EF2FFFEE33FEEC33FCEE9DEC22
:101F8C00984005FCEE9DFE0FD5F0E9E4CEFD22ED68
:101F9C00F8F5F0EE8420D21CFEADF075F008EF2FB2
:101FAC00FFED33FD4007985006D5F0F222C398FDA3
:051FBC000FD5F0EA2240
:101FC100A3F8E0C5F025F0F0E582158270021583D3
:061FD100E0C838F0E82230
:1021BD0002137EE493A3F8E493A34003F68001F2A7
:1021CD0008DFF48029E493A3F85407240CC8C33323
:1021DD00C4540F4420C8834004F456800146F6DFF2
:1021ED00E4800B0102040810204080901C5CE47E0A
:1021FD00019360BCA3FF543F30E509541FFEE493E7
:10220D00A360010ECF54C025E060A840B8E493A3AD
:10221D00FAE493A3F8E493A3C8C582C8CAC583CAD8
:10222D00F0A3C8C582C8CAC583CADFE9DEE780BE90
:011D6500007D
:00000001FF
